:020000040000FA
:060000000A128A110C280F
:10000800FE00030EF0000A08F1000A128A15782C87
:100018000A128A110F28831603130A128A1505215A
:100028000A128A11C0000A128A1506210A128A11B8
:10003800C1000A128A1507210A128A11C2000A127F
:100048008A1508210A128A11C3000A128A15092181
:100058000A128A11C4000A128A150A210A128A1180
:10006800C5000A128A1503210A128A11F8000A1219
:100078008A1504210A128A11F900B601B701B801DC
:10008800B901BA01BB01BC01BD01BE01BF01F60146
:10009800F70183010A128A11B22B831203134B084A
:1000A8008039FF007F08D5004B08D0005007FF00BB
:1000B8007F08DB00CA1F6128622863285B145B087D
:1000C80003196728682877285B0A031D6C286D28A0
:1000D80075280030CB000030CA000030C90000305D
:1000E800C800CA177F280030CB000030CA00003093
:1000F800C9000030C8004F088039FF007F08D506C6
:100108004F08D0005007FF007F08D600CE1F8D286B
:100118008E288F2856145608031993289428A32844
:10012800560A031D98289928A1280030CF000030CE
:10013800CE000030CD000030CC00CE17AB28003008
:10014800CF000030CE000030CD000030CC00560883
:100158000319AF28B028B5285B08031DB428B528B3
:10016800BE280030CB000030CA000030C900003083
:10017800C800B12B4808FF007F08F4004E080A1297
:100188008A15E9210A128A11750883120313E100FE
:100198007408E0006008D000D101D201D3015308EF
:1001A800DA005208D9005108D8005008D700610871
:1001B800D000D101D201D3015308DF005208DE007C
:1001C8005108DD005008DC004908FF007F08F400F2
:1001D8004D080A128A15E9210A128A117508831234
:1001E8000313E1007408E0006008D000D101D201D7
:1001F800D3015008D707510803110318013E03190A
:100208000629D807520803110318013E03190D29BE
:10021800D907530803110318013E03191429DA07F3
:100228006108D000D101D201D3015008DC07510880
:1002380003110318013E03192229DD07520803118F
:100248000318013E03192929DE075308031103186F
:10025800013E03193029DF074A08FF007F08F40030
:100268004C080A128A15E9210A128A1175088312A4
:100278000313E1007408E0006008D000D101D20146
:10028800D3015008D707510803110318013E031979
:100298004E29D807520803110318013E031955299E
:1002A800D907530803110318013E03195C29DA071B
:1002B8006108D000D101D201D3015008DC075108F0
:1002C80003110318013E03196A29DD0752080311B7
:1002D8000318013E03197129DE0753080311031897
:1002E800013E03197829DF070830D0000310D70D25
:1002F800D80DD90DDA0DD00B7A294908FF007F08EF
:10030800F4004C080A128A15E9210A128A117508A4
:1003180083120313E1007408E0006008D00061084C
:10032800D100D201D3015008D7075108031103188F
:10033800013E0319A029D807520803110318013EEA
:100348000319A729D907530803110318013E0319F4
:10035800AE29DA074808FF007F08F4004D080A12A2
:100368008A15E9210A128A11750883120313E1001C
:100378007408E0006008D0006108D100D201D30100
:100388005008D707510803110318013E0319CD2956
:10039800D807520803110318013E0319D429D907B5
:1003A800530803110318013E0319DB29DA07083043
:1003B800D0000310D70DD80DD90DDA0DD00BDD29DB
:1003C8004808FF007F08F4004C080A128A15E92142
:1003D8000A128A11750883120313E1007408E000F9
:1003E8006008D0006108D100D201D3015008D707B6
:1003F800510803110318013E0319032AD8075208AC
:1004080003110318013E03190A2AD90753080311D7
:100418000318013E0319112ADA074908FF007F086B
:10042800F4004E080A128A15E9210A128A11750881
:1004380083120313E1007408E0006008D00061082B
:10044800D100D201D3015008DC0751080311031869
:10045800013E0319302ADD07520803110318013E33
:100468000319372ADE07530803110318013E03193D
:100478003E2ADF074A08FF007F08F4004D080A12E9
:100488008A15E9210A128A11750883120313E100FB
:100498007408E0006008D0006108D100D201D301DF
:1004A8005008DC07510803110318013E03195D2A9F
:1004B800DD07520803110318013E0319642ADE07F9
:1004C800530803110318013E03196B2ADF074A0872
:1004D800FF007F08F4004E080A128A15E9210A1263
:1004E8008A11750883120313E1007408E00060089C
:1004F800D0006108D100D201D30108300310D00D1B
:10050800D10DD20DD30DFF3E031D822A5008DC0702
:10051800510803110318013E0319932ADD075208F5
:1005280003110318013E03199A2ADE075308031121
:100538000318013E0319A12ADF075708D0005808FD
:10054800D1005908D2005A08D30018300310D30C30
:10055800D20CD10CD00CFF3E031DAA2A5008DC0790
:10056800510803110318013E0319BB2ADD0752087D
:1005780003110318013E0319C22ADE0753080311A9
:100588000318013E0319C92ADF070830D0000310F9
:10059800D70DD80DD90DDA0DD00BCB2A5B0856072D
:1005A800D000D101D10D5008823EE0005108031857
:1005B800013EFF3EE100FD2A0130D0000310DC0DB2
:1005C800DD0DDE0DDF0DD00BE22ADA1FEC2AED2A55
:1005D800EE2A5C140130D0000310D70DD80DD90DC8
:1005E800DA0DD00BF02AFF30E0070318E10AFF30DC
:1005F800E107DE1F002B012BE02AD601DA1F052BAD
:10060800062B222BFF305705D000FF305805D100AC
:10061800FF305905D2007F305A05D30053085204E1
:10062800510450040319192B1A2B1D2BD601D60A75
:10063800222B5C1C202B212B222B1A2B560803194A
:10064800262B272B582B0130DC07003003180130EC
:10065800DD07003003180130DE07003003180130D1
:10066800DF075F1C382B392B582B5C08D0005D083E
:10067800D1005E08D2005F08D3000130D400530DCA
:10068800D30CD20CD10CD00CD40B432B5308DF0065
:100698005208DE005108DD005008DC000130E00798
:1006A8000318E10A0030E1076108803AFF00803052
:1006B8007F02031D612BFF306002031C642B652B36
:1006C800702B7F3083120313DF008030DE00003090
:1006D800DD000030DC00A52B831203136108803A8B
:1006E800FF0080307F02031D7B2B0130600203185E
:1006F8007E2B7F2B8B2B003083120313DF000030FF
:10070800DE000030DD000030DC00D501A52B8312AF
:1007180003136008FF007F08DB00FF30DC05FF30B3
:10072800DD057F30DE050030DF055B1C9C2B9D2B33
:100738009E2BDE175B08D0000310500CFF007F08CB
:10074800DF005508FF007F08DF045F08CB005E0864
:10075800CA005D08C9005C08C800080083160313B6
:10076800861486150714071187108712071787172D
:100778000A128A1554210A128A118B170B16760849
:1007880077040319C82BC92B262E0B1700308312A8
:100798000313B0000030AF002530AE008030AD004C
:1007A8000A128A1512220A128A11003083120313C0
:1007B800A200A3004430FF007F08A4000A128A1593
:1007C80045230A128A11003083120313A000A100E6
:1007D800A330FF007F08A2000630A3000030A40069
:1007E8000A128A150E240A128A11A33083120313DF
:1007F800A0000030A1000A128A15BF220A128A112D
:100808000A128A1526210A128A110A128A153B2110
:100818000A128A118312031307150B309000013056
:100828008316031381008B165030A9000030AA00EC
:100838003C30AD000030AE002C30AB000130AC00D5
:100848002C30AF000130B000202E0230F400003010
:10085800F5000A128A15A6210A128A11750883164C
:100868000313B2007408B1000130F4000030F50041
:100878000A128A15A6210A128A117508831603130B
:10088800B5007408B4000030F400F5000A128A15A7
:10089800A6210A128A11750883120313ED00740841
:1008A800EC000A128A15EC240A128A118316031323
:1008B8003E083F040319612C622C892C32088312EC
:1008C8000313C10083160313310883120313C000F6
:1008D80083160313350883120313C3008316031307
:1008E800340883120313C2007908C5007808C400CD
:1008F8005330FF007F08C6000A128A154A220A12DE
:100908008A1183160313BE01BF013A083B04031979
:100918008E2C8F2C042D831203131A08FF007F08D6
:1009280083160313B30068303306031D9C2C9D2CDB
:10093800C82C320883120313C1008316031331082D
:1009480083120313C000831603133508831203139D
:10095800C30083160313340883120313C2007908F3
:10096800C5007808C4005630FF007F08C6000A1288
:100978008A154A220A128A1183160313BA01BB0187
:10098800831203138C12042D41303306031DCD2C22
:10099800CE2CDB2C3C30A9000030AA001E30AD0064
:1009A8000030AE009630AB000030AC00C02C613097
:1009B8003306031DE02CE12CEE2C6430A900003036
:1009C800AA002C30AD000130AE009030AB000130F1
:1009D800AC00C02C42303306031DF32CF42CF92C48
:1009E800C830AF000030B000C02C62303306031DA1
:1009F800FE2CFF2C042D9030AF000130B000C02C2D
:100A08008316031344087802A0004508031C450A0E
:100A18007902A1002108803AA2003008803A220217
:100A2800031D182D2F082002031C1B2D1C2D512DD2
:100A38008316031340034104031D232D242D512D38
:100A4800320883120313C10083160313310883127B
:100A58000313C00083160313350883120313C3005E
:100A680083160313340883120313C2007908C500E0
:100A78007808C4004F30FF007F08C6000A128A15A4
:100A88004A220A128A110A128A1579210A128A112F
:100A980083160313C001C101F62D831603134408FE
:100AA8007802A0004508031C450A7902A100210824
:100AB800803AA2003008803A2202031D652D2F08D3
:100AC80020020318682D692D762D8316031340081C
:100AD8004104031D702D712D762D0130C0000030AA
:100AE800C100F62D831603133208803AA0002A08A5
:100AF800803A2002031D822D29083102031C852D0E
:100B0800862DD92D831603132E08803AA0003508A8
:100B1800803A2002031D922D34082D02031C952DC6
:100B2800962DD92D7908803A83160313A0002C0836
:100B3800803A2002031DA22D2B087802031CA52D44
:100B4800A62DD92D8316031342034304031DAD2D8F
:100B5800AE2DD92DC201C301320883120313C1007F
:100B680083160313310883120313C000831603137B
:100B7800350883120313C300831603133408831242
:100B88000313C2007908C5007808C4004B30FF0081
:100B98007F08C6000A128A154A220A128A110A1206
:100BA8008A1579210A128A11F62D831603132E0845
:100BB800803AA0003508803A2002031DE52D34084C
:100BC8002D020318E82DE92DF62D8316031342088C
:100BD8004304031DF02DF12DF62D0130C200003025
:100BE800C300F62D831203138619FB2DFC2D202E2E
:100BF8000B2E8312861D012E022EFD2D8716202E08
:100C08008312861D082E092E042E8712202E070E09
:100C180083160313A000200C0139A100A2012208A9
:100C2800003A0319182E202E2108003A0319FD2D29
:100C3800013A0319042E202E76087704031D252E69
:100C4800262E292C831203131211900183160313E5
:100C580081018B138B120B13831203130711871255
:100C68007B30F8000230F9007B3083160313C40090
:100C78000230C5000030B9000030B8000030B700BD
:100C88000030B600BC01BD010A128A110C2883127B
:100C98000313BE002C30FF007F08B900622F2530F7
:100CA8003F060319582E592E652E3F08FF003E08AF
:100CB80084007F08831780000130FF007F08BE078B
:100CC800622FB701A72E3908840083130008BA00E1
:100CD800840A00088403BB000230FF007F08B907BC
:100CE8003A083B04031D792E7A2E982E3D30BA001F
:100CF8008030BB00982E3B08FF003A0884000A1297
:100D08008A1500200A128A11FF003E0884007F0815
:100D1800831780000130BA070318BB0A0030BB07ED
:100D28000130FF007F08BE073B08FF003A08840037
:100D38000A128A1500200A128A11003A031DA52EEC
:100D4800A62E7F2E622F0130AB07FF302B078400C1
:100D58000A128A150A200A128A11BF00B400B501C6
:100D68003508003A0319B92E622F3408003A0319DE
:100D7800742F643A0319C72E0D3A0319C72E1A3A6D
:100D88000319672E622F3908840083130008BC00FA
:100D9800840A0008BD000230FF007F08B907BD1FA4
:100DA800D62ED72EE02E0330FF007F08B704BC09EB
:100DB800BD09BC0A0319BD0ABF01BF0A3F08B40038
:100DC8003407013E84000A128A150A200A128A1181
:100DD800B5000A128A150A200A128A11B6003608C6
:100DE8003D02031DF92E35083C020318FC2EFD2E8A
:100DF800FE2E082F0130FF007F08BF0705303F0691
:100E0800031D072F082FE22E3708033903190D2F6A
:100E18000E2F192F2D30FF003E0884007F088317FE
:100E280080000130FF007F08BE073F08FF007F08F1
:100E3800B800592F0A30A7000030A8003808B400BD
:100E48003407013E84000A128A150A200A128A1100
:100E5800A0000A128A150A200A128A11A1003D0868
:100E6800A3003C08A2000A128A15FF220A128A115E
:100E7800831203132108AA002008A9000A128A1560
:100E880083220A128A11831203132708303EFF00B7
:100E98007F08BF003F08FF003E0884007F088317D3
:100EA80080000130FF007F08BE07FF30FF007F0889
:100EB800B807380A031D612F622F1E2F0130AB07B8
:100EC800FF302B0784000A128A150A200A128A1199
:100ED800FF007F08BF003F08031D732F742F532E98
:100EE8003E0884008317800108000310831203134F
:100EF800640D650DFF007F08EB006B08031D852F4F
:100F0800862F8F2F0030E5000030E4000030E3002A
:100F18000030E200F42F6208E6006308E700640886
:100F2800E8006508E9001F300310E90CE80CE70C3D
:100F3800E60CFF3E031D982F6608FF007F08EA00B5
:100F4800E417FF30E205FF30E305FF30E405003029
:100F5800E5059630EB02EB1FB22FB32FCD2F6B08B0
:100F6800803A973E0318B92FBA2FBB2F862F01302E
:100F78000310E50CE40CE30CE20CFF3E031DBC2F50
:100F88000130FF007F08EB07031DCB2FCC2FBB2FB1
:100F9800E42F20306B02031CD22FD32FDF2F862F94
:100FA8000130E6000310E20DE30DE40DE50DE60B5C
:100FB800D62F0130EB026B08031DE32FE42FD42F4B
:100FC8006A080319E82FE92FF42FE209E309E40975
:100FD800E509E20A0319E30A0319E40A0319E50A11
:100FE8000800F40074088312031399000C1EFD2FE7
:060FF800FE2FFA2F080095
:10100000FF1B0A2883137F1883170008840A03191B
:10101000FF0A080008308A000408840A82070034A6
:10102000013400340A34003464340034E8340334C6
:10103000103427340D340A347B340A3422345334C8
:101040006934743422343A342234253473342234EB
:101050002C340A342234543465346D3470342234E0
:101060003A34253464342C340A3422344834753408
:101070006D3422343A34253464342C340A34223426
:10108000563465346C3422343A34253464340A34AA
:101090007D340D340A34003428346E3475346C34A5
:1010A0006C342934003450344934433420344F34C0
:1010B0004E34003445344D343134003445344D34ED
:0E10C0003234003445345634003448340034A1
:101206007B34023401340034013400347B3402343C
:101216000A128A1547210A128A1583160313911496
:1012260008000A128A1547210A128A158316031323
:10123600111408000A128A1547210A128A15831604
:10124600031311150800C130831203139F00C03029
:10125600831603139F0008008316031391120A12C4
:101266008A1547210A128A158316031311160800D8
:101276001330831603139200831203139210121471
:1012860012159715171508008316031314194C2900
:101296004D29472911081F39031D5229532947296A
:1012A60008008316031398161813181218158312BC
:1012B6000313981718131816193083160313990079
:1012C6000800F4000A128A1547210A128A157408C2
:1012D6008312031393008C1D712972296E298C11B8
:1012E600003083160313111B013008008312031309
:1012F6008714063083120313A2001330A100AD3009
:10130600A000A00B8429A10B8429A20B8429831297
:1013160003138710070808000A128A1547210A12C4
:101326008A1583160313911583128C1D9B299C29FC
:1013360097298C110A128A1547210A128A158312D7
:101346000313130808000130FF007F0883120313FC
:101356009F057408A00002300310A00DFF3E031D78
:10136600AF290310200DFF007F089F041F151F19CA
:10137600BD29BE29BA291E08F500831603131E08C7
:10138600F4000800740883120313A0007508A10076
:10139600D2290130A0070318A10A0030A1072108AD
:1013A600FF00200884000A128A1500200A128A15F6
:1013B600003A031DDF29E029CC2974082002F40035
:1013C6007508031C750A2102F50008008312031331
:1013D600A600A201A3017408A000A1012008A40090
:1013E6002108A500261CF829F929FF292408A207A7
:1013F6000318A30A2508A30701300310A40DA50DA1
:10140600FF3E031D002A0310A60C2608031D0C2A06
:101416000D2AF5292308F5002208F40008002830D3
:10142600831203139400831603139101831203138B
:101436002D08B1002E08B2002F08B3003008B40002
:1014460002300310B10DB20DB30DB40DFF3E031DF6
:10145600242A3408A3003308A2003208A100310868
:10146600A0000030A7003D30A6000930A5000030DE
:10147600A4000A128A15A6230A128A1583120313D8
:101486002008FF3E831603139300940108000B30D7
:10149600FF007F0883120313AB004608AC00003040
:1014A600031D8030AD004108AF004008AE00430880
:1014B600B1004208B0004508B3004408B2009030BD
:1014C6000A128A114B260A128A159030F40001304E
:1014D600F5000A128A15C5210A128A157408013EFA
:1014E600903E840083178001903083120313A0007E
:1014F6000130A1000A128A15BF220A128A150800B5
:10150600831203132708280403198A2A8B2ABA2A66
:10151600F401F40A992A01300310A70DA80DFF3E25
:10152600031D8F2A0130FF007F08F407A81F9C2A9D
:101536009D2A8E2A28082A02031DA32A2708290283
:10154600031CA62AA72AAD2A2708A9022808031CD5
:10155600AA03AA0201300310A80CA70CFF3E031D24
:10156600AE2A0130F402031DB92ABA2A9D2A2A0896
:10157600A8002908A700080083120313A501A601E5
:10158600E52A25082007A3002108A2000318A20ABD
:10159600A51FCE2AA203831203132208A400230840
:1015A60084008317241C831300080A128A11F52766
:1015B6000A128A15013083120313A5070318A60A17
:1015C6000030A60725082007A3002108A20003185B
:1015D600A20AA51FEF2AA203831203132208A4005E
:1015E600230884008317241C83130008031DFC2A88
:1015F600FD2AC42A0C12080083120313A501A601B2
:10160600200821040319082B092B402BA401A40A46
:10161600172B01300310A00DA10DFF3E031D0D2B4E
:101626000130FF007F08A407A11F1A2B1B2B0C2BD0
:1016360001300310A50DA60DFF3E031D1C2B21082E
:101646002302031D282B20082202031C2B2B2C2BE4
:10165600332B2008A2022108031CA303A30225148E
:1016660001300310A10CA00CFF3E031D342B0130EA
:10167600A402031D3F2B402B1B2B2608A100250887
:10168600A00008000A128A1514210A128A15502B86
:101696000A128A150B210A128A15A0300A128A1517
:1016A60064210A128A15003A031D5A2B5B2B4B2B19
:1016B6008312031323080A128A1564210A128A1553
:1016C6008312031322080A128A1564210A128A1544
:1016D600831203132408F4000030031D8030F50044
:1016E6000A128A15C5210A128A1575088312031370
:1016F600A6007408A500A701A801962B27082407B1
:1017060084000A128A150A200A128A150A128A15F4
:1017160064210A128A15013083120313A7070318DE
:10172600A80A0030A80726082802031D9C2B2508B6
:101736002702031C9F2BA02B812B0A128A151D2121
:101746000A128A150800003083120313AB0000301A
:10175600AA000030A9000030A800230822042104B2
:1017660020040319B72BB82B052CAC01AC0AC82BE7
:101776000130F4000310A00DA10DA20DA30DF40B72
:10178600BD2B0130FF007F08AC07A31FCB2BCC2B52
:10179600BB2B0130F4000310A80DA90DAA0DAB0D4B
:1017A600F40BCE2B23082702031DE32B2208260267
:1017B600031DE32B21082502031DE32B2008240229
:1017C600031CE62BE72BF62B2008A4022108031C9A
:1017D600210FA5022208031C220FA6022308031CC0
:1017E600230FA702281401300310A30CA20CA10C8E
:1017F600A00CFF3E031DF72B0130AC02031D042C89
:10180600052CCC2B2B08A3002A08A2002908A1002E
:101816002808A00008000A128A1514210A128A153F
:10182600192C0A128A150B210A128A15A0300A12DF
:101836008A1564210A128A15003A031D232C242CCA
:10184600142C8312031321080A128A1564210A1222
:101856008A158312031320080A128A1564210A12B4
:101866008A150A128A150B210A128A15A1300A1244
:101876008A1564210A128A1583120313A501A6018B
:10188600612C0A128A158F210A128A15FF0083120B
:10189600031325082207F500750884007F088313C3
:1018A60080000A128A152F210A128A150130831226
:1018B6000313A5070318A60A0030A6072408260264
:1018C600031D672C23082502031C6A2C6B2C442C51
:1018D60023082207F50075088400831380010A1285
:1018E6008A151D210A128A1508000B1D7B2C7C2CDB
:1018F600C72C0B11013083160313B60700300318EB
:101906000130B707003003180130B807003003185C
:101916000130B90760303606EA3003193706380455
:101926003904031D972C982CA52C0030B9000030E3
:10193600B8000030B7000030B6000130BE000030FD
:10194600BF00C72CE8303C06033003193D06031DD3
:10195600AD2CAE2CC12CBC01BD017908C5007808A0
:10196600C400831203130F08F3000E08F200730875
:10197600F9007208F8008F018E01C72C0130BC07F0
:101986000318BD0A0030BD07831203138C1ECC2C2E
:10199600CD2CD32C013083160313BA000030BB00C4
:1019A6008B1CD62CD72CE52C8B10760877040319C4
:1019B600DD2CDE2CE12CF601F701E52C0130F600DA
:1019C6000030F70071088A00700E8300FE0E7E0E4E
:1019D60009000330831203136D02FF3003196C02F2
:1019E6000318F62CF72C662D6C08A0006D08A100D4
:1019F600A201A30100300A128A1567250A128A1568
:101A0600831203132308B5002208B4002108B3008B
:101A16002008B2004430B1007F30B000C030AF00C3
:101A26000030AE000A128A1523260A128A1583127E
:101A360003133108CF003008CE002F08CD002E0842
:101A4600CC004330CB004830CA000030C90000301B
:101A5600C8000A128A1151200A128A15831203132A
:101A66004B08E5004A08E4004908E3004808E2009C
:101A76000A128A1179270A128A1583120313630838
:101A8600ED006208EC006C18492D4D2D83120313EE
:101A96009716502D8312031397126C18532D572D3A
:101AA6008312031317165A2D8312031317126D0888
:101AB600EF006C08EE000310EF0CEE0C0310EF0CB9
:101AC600EE0C6E089500080083120313A800280880
:101AD60003196E2D6F2D832DA31F722D732D832D4C
:101AE6002009AA002109AB002209AC002309AD0098
:101AF600AA0A0319AB0A0319AC0A0319AD0A8B2DFE
:101B06002308AD002208AC002108AB002008AA007B
:101B16002308220421042004031D922D932D9C2DBD
:101B26000030A3000030A2000030A1000030A00069
:101B3600222E9630FF007F08A900AE2D0130FF004F
:101B46007F08A90701300310AD0CAC0CAB0CAA0C36
:101B5600FF3E031DA62DFE302D05031DB32DB42D0E
:101B6600A12DD02D0130FF007F08A9070130AA075B
:101B7600003003180130AB07003003180130AC0702
:101B8600003003180130AD0701300310AD0CAC0C6A
:101B9600AB0CAA0CFF3E031DC82DFF302D05031DFF
:101BA600D52DD62DB52DE22D0130A9020130A40088
:101BB6000310AA0DAB0DAC0DAD0DA40BDB2DAC1BAC
:101BC600E52DE62DEC2D023029020318EB2DEC2D28
:101BD600D72D2918EF2DF02DF82DFF30AA05FF304F
:101BE600AB057F30AC05FF30AD050310A90C290805
:101BF600A400A501A601A70118300310A40DA50D88
:101C0600A60DA70DFF3E031D002E2408AA042508D5
:101C1600AB042608AC042708AD0428080319142EC3
:101C2600152E1A2EA31F182E192E1A2EAD172D0893
:101C3600A3002C08A2002B08A1002A08A000080077
:101C46008312031335088039FF007F08BF0035086B
:101C5600B6003607FF007F08C600B41F332E342EA9
:101C6600352E461446080319392E3A2E4A2E460AB0
:101C7600031D3E2E3F2E472E0030B5000030B40027
:101C86000030B3000030B200B417B501522E003058
:101C9600B5000030B4000030B3000030B2003108A7
:101CA6008039FF007F08BF063108B6003607FF00FF
:101CB6007F08C700B01F602E612E622E47144708AA
:101CC6000319662E672E772E470A031D6B2E6C2E80
:101CD600742E0030B1000030B0000030AF0000308C
:101CE600AE00B017B1017F2E0030B1000030B00059
:101CF6000030AF000030AE00310830042F042E044F
:101D0600031D862E872EA02E0030B5000030B400AD
:101D16000030B3000030B2008030B4047F30B50428
:101D26003F08FF007F08B5043508B1003408B0004D
:101D36003308AF003208AE00FF2F4608031DA42E5D
:101D4600A52EAE2E0030B1000030B0000030AF003E
:101D56000030AE00FF2F4608B600B7013708B900BD
:101D660047083602B800031CB90338087F3EC00096
:101D760039080318013E003EC1003508BE0034088C
:101D8600BD003308BC003208BB000030B50000308F
:101D9600B4000030B3000030B2000030C50000309F
:101DA600C4000030C3000030C200C701242F47081A
:101DB6000319DE2EDF2EFF2E0130B6000310BB0DF9
:101DC600BC0DBD0DBE0DB60BE12E0130B6000310E5
:101DD600B20DB30DB40DB50DB60BEA2EC51FF42E1C
:101DE600F52EF62E32140130B6000310C20DC30DC7
:101DF600C40DC50DB60BF82E31083E02031D0D2F7E
:101E060030083D02031D0D2F2F083C02031D0D2F28
:101E16002E083B02031C102F112F202F45172E08CA
:101E2600BB022F08031C2F0FBC023008031C300F07
:101E3600BD023108031C310FBE020130FF007F08CE
:101E4600C7071A304702031C292F2A2FDA2E3E080D
:101E56003D043C043B040319312F322F512F421409
:101E6600512F0130B6000310B20DB30DB40DB50DF0
:101E7600B60B362FC51F402F412F422F321401308B
:101E8600B6000310C20DC30DC40DC50DB60B442F0D
:101E9600FF30C0070318C10AFF30C107B41F542F13
:101EA600552F342FC701C51F592F5A2F762FFF30B4
:101EB6004205B600FF304305B700FF304405B800C1
:101EC6007F304505B900390838043704360403194C
:101ED6006D2F6E2F712FC701C70A762F321C742FF4
:101EE600752F762F6E2F470803197A2F7B2FAC2F6D
:101EF6000130B207003003180130B3070030031871
:101F06000130B407003003180130B507351C8C2F9B
:101F16008D2FAC2F3208B6003308B7003408B8004E
:101F26003508B9000130BA00390DB90CB80CB70C38
:101F3600B60CBA0B972F3908B5003808B400370825
:101F4600B3003608B2000130C0070318C10A0030DA
:101F5600C1074108803AFF0080307F02031DB52F7C
:101F6600FF304002031CB82FB92FC72FFF30831252
:101F76000313C0000030C1000030B5000030B400CB
:101F86000030B3000030B200831203134108803AD8
:101F9600FF0080307F02031DD22F0130400203185C
:101FA600D52FD62FE32F83120313C001C1010030B2
:101FB600B5000030B4000030B3000030B200BF01FD
:101FC600831203134008FF007F08C600461CEC2F4F
:101FD600ED2FEF2FB417F32F7F30FF007F08B405E6
:101FE6004608B6000310360CFF007F08B5003F0810
:0A1FF600FF007F08B504972E0800D5
:02400E003A3F37
:00000001FF
